{
  "contractName": "FIFSResolvingRegistrar",
  "abi": [
    {
      "constant": true,
      "inputs": [],
      "name": "rootNode",
      "outputs": [
        {
          "name": "",
          "type": "bytes32"
        }
      ],
      "payable": false,
      "stateMutability": "view",
      "type": "function"
    },
    {
      "inputs": [
        {
          "name": "_ensAddr",
          "type": "address"
        },
        {
          "name": "_defaultResolver",
          "type": "address"
        },
        {
          "name": "_node",
          "type": "bytes32"
        }
      ],
      "payable": false,
      "stateMutability": "nonpayable",
      "type": "constructor"
    },
    {
      "anonymous": false,
      "inputs": [
        {
          "indexed": true,
          "name": "subnode",
          "type": "bytes32"
        },
        {
          "indexed": true,
          "name": "owner",
          "type": "address"
        },
        {
          "indexed": true,
          "name": "resolver",
          "type": "address"
        }
      ],
      "name": "ClaimSubdomain",
      "type": "event"
    },
    {
      "constant": false,
      "inputs": [
        {
          "name": "_subnode",
          "type": "bytes32"
        },
        {
          "name": "_owner",
          "type": "address"
        }
      ],
      "name": "register",
      "outputs": [],
      "payable": false,
      "stateMutability": "nonpayable",
      "type": "function"
    },
    {
      "constant": false,
      "inputs": [
        {
          "name": "_subnode",
          "type": "bytes32"
        },
        {
          "name": "_owner",
          "type": "address"
        },
        {
          "name": "_resolver",
          "type": "address"
        }
      ],
      "name": "registerWithResolver",
      "outputs": [],
      "payable": false,
      "stateMutability": "nonpayable",
      "type": "function"
    }
  ],
  "bytecode": "0x608060405234801561001057600080fd5b506040516060806105ef83398101604090815281516020830151919092015160018054600160a060020a03948516600160a060020a0319918216179091556002805494909316931692909217905560005561057f806100706000396000f3006080604052600436106100565763ffffffff7c0100000000000000000000000000000000000000000000000000000000600035041663d22057a9811461005b578063f858fc0b1461008e578063faff50a8146100c5575b600080fd5b34801561006757600080fd5b5061008c60043573ffffffffffffffffffffffffffffffffffffffff602435166100ec565b005b34801561009a57600080fd5b5061008c60043573ffffffffffffffffffffffffffffffffffffffff60243581169060443516610116565b3480156100d157600080fd5b506100da61054d565b60408051918252519081900360200190f35b600254610112908390839073ffffffffffffffffffffffffffffffffffffffff16610116565b5050565b60008054604080519182526020808301879052815192839003820183206001547f02571be300000000000000000000000000000000000000000000000000000000855260048501829052925190949373ffffffffffffffffffffffffffffffffffffffff909316926302571be392602480830193919282900301818787803b1580156101a157600080fd5b505af11580156101b5573d6000803e3d6000fd5b505050506040513d60208110156101cb57600080fd5b5051905073ffffffffffffffffffffffffffffffffffffffff8116156101f057600080fd5b60015460008054604080517f06ab59230000000000000000000000000000000000000000000000000000000081526004810192909252602482018990523060448301525173ffffffffffffffffffffffffffffffffffffffff909316926306ab59239260648084019391929182900301818387803b15801561027157600080fd5b505af1158015610285573d6000803e3d6000fd5b5050600154604080517f1896f70a0000000000000000000000000000000000000000000000000000000081526004810187905273ffffffffffffffffffffffffffffffffffffffff88811660248301529151919092169350631896f70a9250604480830192600092919082900301818387803b15801561030457600080fd5b505af1158015610318573d6000803e3d6000fd5b5050604080517f01ffc9a70000000000000000000000000000000000000000000000000000000081527f3b3b57de000000000000000000000000000000000000000000000000000000006004820152905173ffffffffffffffffffffffffffffffffffffffff871693506301ffc9a7925060248083019260209291908290030181600087803b1580156103aa57600080fd5b505af11580156103be573d6000803e3d6000fd5b505050506040513d60208110156103d457600080fd5b50511561046c57604080517fd5fa2b000000000000000000000000000000000000000000000000000000000081526004810184905273ffffffffffffffffffffffffffffffffffffffff868116602483015291519185169163d5fa2b009160448082019260009290919082900301818387803b15801561045357600080fd5b505af1158015610467573d6000803e3d6000fd5b505050505b600154604080517f5b0fc9c30000000000000000000000000000000000000000000000000000000081526004810185905273ffffffffffffffffffffffffffffffffffffffff878116602483015291519190921691635b0fc9c391604480830192600092919082900301818387803b1580156104e757600080fd5b505af11580156104fb573d6000803e3d6000fd5b505060405173ffffffffffffffffffffffffffffffffffffffff80871693508716915087907fe27a5a369e0d2c5056ccfcbd5f83f145f43350142d42aaf46ff9a9e461d543df90600090a45050505050565b600054815600a165627a7a72305820dde468816802a83e6e70692ba51c6f095c5710a84ecdb601b5ac001740eaaaeb0029",
  "source": "pragma solidity 0.4.24;\n\nimport \"@aragon/os/contracts/lib/ens/AbstractENS.sol\";\nimport \"./ens/IPublicResolver.sol\";\nimport \"./IFIFSResolvingRegistrar.sol\";\n\n\n/**\n * A registrar that allocates subdomains and sets resolvers to the first person to claim them.\n *\n * Adapted from ENS' FIFSRegistrar:\n *   https://github.com/ethereum/ens/blob/master/contracts/FIFSRegistrar.sol\n */\ncontract FIFSResolvingRegistrar is IFIFSResolvingRegistrar {\n    bytes32 public rootNode;\n    AbstractENS internal ens;\n    IPublicResolver internal defaultResolver;\n\n    bytes4 private constant ADDR_INTERFACE_ID = 0x3b3b57de;\n\n    event ClaimSubdomain(bytes32 indexed subnode, address indexed owner, address indexed resolver);\n\n    /**\n     * Constructor.\n     * @param _ensAddr The address of the ENS registry.\n     * @param _defaultResolver The address of the default resolver to use for subdomains.\n     * @param _node The node that this registrar administers.\n     */\n    constructor(AbstractENS _ensAddr, IPublicResolver _defaultResolver, bytes32 _node)\n        public\n    {\n        ens = _ensAddr;\n        defaultResolver = _defaultResolver;\n        rootNode = _node;\n    }\n\n    /**\n     * Register a subdomain with the default resolver if it hasn't been claimed yet.\n     * @param _subnode The hash of the label to register.\n     * @param _owner The address of the new owner.\n     */\n    function register(bytes32 _subnode, address _owner) external {\n        registerWithResolver(_subnode, _owner, defaultResolver);\n    }\n\n    /**\n     * Register a subdomain if it hasn't been claimed yet.\n     * @param _subnode The hash of the label to register.\n     * @param _owner The address of the new owner.\n     * @param _resolver The address of the resolver.\n     *                  If the resolver supports the address interface, the subdomain's address will\n     *                  be set to the new owner.\n     */\n    function registerWithResolver(bytes32 _subnode, address _owner, IPublicResolver _resolver) public {\n        bytes32 node = keccak256(rootNode, _subnode);\n        address currentOwner = ens.owner(node);\n        require(currentOwner == address(0));\n\n        ens.setSubnodeOwner(rootNode, _subnode, address(this));\n        ens.setResolver(node, _resolver);\n        if (_resolver.supportsInterface(ADDR_INTERFACE_ID)) {\n            _resolver.setAddr(node, _owner);\n        }\n\n        // Give ownership to the claimer\n        ens.setOwner(node, _owner);\n\n        emit ClaimSubdomain(_subnode, _owner, address(_resolver));\n    }\n}\n",
  "sourcePath": "@aragon/id/contracts/FIFSResolvingRegistrar.sol",
  "compiler": {
    "name": "solc",
    "version": "0.4.24+commit.e67f0147.Emscripten.clang"
  },
  "schemaVersion": "2.0.1",
  "updatedAt": "2020-08-30T16:48:34.416Z"
}